:100000000C94A5010C94D6010C94D6010C94D60145
:100010000C94D6010C94D6010C94D6010C94D60104
:100020000C94D6010C94D6010C94D6010C94D601F4
:100030000C94D6010C94D7080C94D6010C94D601DC
:100040000C94D6010C94AC080C94D6010C94D601F7
:100050000C94D6010C94D6010C94D6010C945F221A
:100060000C94D6010C9438100C9428110C94D601E1
:100070000C94D6010C94D6010C94D6010C94D601A4
:100080000C94D6010C94D6010C94D6010C94D60194
:100090000C946C100C9467110C94D6010C94D6013E
:1000A0000C94D6010C94D6010C94D6010C94D60174
:1000B0000C94D6010C94D6010C94D6010C94D60164
:1000C0000C94D6010C94D6010C94D6010C94A0107B
:1000D0000C94A6110C94D6010C94D4100C94E51138
:1000E0000C94D6014F03160353031A031D03200378
:1000F000240327032B032E033103340337033B036D
:100100003F03430346034903AE23B323B823C2236B
:100110003B24CC23D423DC23E623F023FA23092435
:1001200013243B241D24272431245B245E245124E2
:1001300055249524622466246C24702474247A2423
:100140007E248224952488248C2490240C942003DB
:100150000C9455240C949E0F0C94D3130C94882467
:100160000C9470240C94621F0C94EA0F0C9490244D
:100170000C946C240C9466240C94DC230C941D03C6
:100180000C943B240C94F0230C943F030C94F50F37
:100190000C9474240C94CA0F0C94FA230C946224CB
:1001A0000C9482240C94C2230C94510F0C9446039B
:1001B0000C9451240C94E6230C9431030C94D42316
:1001C0000C9424030C94B8230C941D240C94370332
:1001D0000C94CC230C94180E0C945B240C941A03EE
:1001E0000C9443030C94811F0C9409240C948C24CC
:1001F0000C94AE0F0C9495240C942B030C942E03AA
:100200000C944F030C9431240C945E240C9413240E
:100210000C9427030C949B210C9449030C94B32356
:100220000C9427240C947A240C94AE230C9416037B
:100230000C9434030C947E240C943B030C945303D1
:100240000000090A02080B0C0D0706030401000058
:10025000000000000000000000000000000000009E
:1002600000000000000000000000000011100F005E
:10027000000000000000000000000000000000007E
:10028000000000000000010210202008081020409B
:10029000102040800201020108040201010204084A
:1002A00010204080804020100804020180040201D8
:1002B0008040201008040201080402010102040821
:1002C000102040800102040810204080050505052B
:1002D000070508080808020202020A0A08080404BE
:1002E00004040101010101010101030303030303EC
:1002F0000303040707070C0C0C0C0C0C0C0C02027B
:10030000020206060606060606060B0B0B0B0B0B77
:100310000B0B00002200250028002B002E003100CE
:10032000340002010000050108010B01000021005A
:10033000240027002A002D003000330001010000B6
:10034000040107010A01621F811F11241FBECFEFA4
:10035000D1E2DEBFCDBF00E00CBF13E0A0E0B2E011
:10036000E4E1F2E500E00BBF02C007900D92AC346F
:10037000B107D9F726E0ACE4B3E001C01D92A53582
:10038000B207E1F711E0C5EAD1E000E006C021972D
:100390000109802FFE010E946727C33AD10780E040
:1003A0000807A9F70E94471F0C9408290C94000025
:1003B0000C940023CF93DF93EC0160E088890E94C6
:1003C000D22480EC0E94411F61E088890E94D224DF
:1003D0006AE070E080E090E0DF91CF910C94DA2247
:1003E0001F93CF93DF93EC01162F60E088890E9462
:1003F000D22483E00E94411F812F0E94411F80E090
:100400000E94411F182F61E088890E94D224812F09
:10041000DF91CF911F910895CF92DF92EF92FF92DB
:100420000F931F93CF93DF931F921F92CDB7DEB729
:100430007C01162FC22E60E0FC01808949835A831B
:100440000E94D22483E00E94411F812F0E94411FFD
:100450004981042F5A81152FD12CDC1459F0F8E072
:10046000DF1641F080E00E94411FF80181938F0167
:10047000D394F3CF61E0F70180890F900F90DF9163
:10048000CF911F910F91FF90EF90DF90CF900C9440
:10049000D224EF92FF921F93CF93DF931F92CDB799
:1004A000DEB77C01162F60E0FC01808949830E9441
:1004B000D22482E00E94411F812F0E94411F498166
:1004C000842F0E94411F61E0F70180890F90DF9126
:1004D000CF911F91FF90EF900C94D224CF92DF9296
:1004E000EF92FF920F931F93CF93DF931F921F9270
:1004F000CDB7DEB78C01E62EF22E60E0FC018089DC
:1005000049835A830E94D22482E00E94411F8E2D8B
:100510000E94411F4981E42EC42E5A81D52E8C2D74
:100520008E198F1530F4F60181916F010E94411FE1
:10053000F6CF61E0F80180890F900F90DF91CF91A5
:100540001F910F91FF90EF90DF90CF900C94D224E9
:10055000EF92FF921F93CF93DF931F921F92CDB71D
:10056000DEB77C01162F60E0FC0180892A83498375
:100570000E94D22485E00E94411F812F0E94411FCA
:100580004981842F0E94411F2A81822F0E94411F8E
:1005900061E0F70180890F900F90DF91CF911F915B
:1005A000FF90EF900C94D2241F93CF93DF93EC0134
:1005B00060E088890E94D22480EA0E94411F80E086
:1005C0000E94411F182F61E088890E94D224812F48
:1005D000DF91CF911F9108950F931F93CF938C01BB
:1005E000C62F262F40EE6FE00E94A8026FE0C801E0
:1005F0000E94F001982F907E81E09C1301C080E062
:10060000CF911F910F9108950F931F93CF93DF9375
:100610008C01462F50E0FA013197E231F105E8F5FF
:100620008827EE58FF4F8F4F0C946727C7E8DFEFFE
:100630004FE13CC0C7E0DAEB38C0C5E8D1EF35C0C8
:10064000C7E0DEEB49E032C0C7E8DFEF02C0C7E831
:10065000DAEF47E02BC0C7E8DFEF0BC0C7E0DEEB07
:1006600008C0C7E0DDEA05C0C7E8DAEF02C0C6E8A7
:10067000D0EF43E01BC0C7E8DAEF41E017C0C5E8A0
:10068000D1EF41E413C0C6E8D0EF05C0C4E0D0EA22
:1006900002C0C2E8D0ED40E009C081E016C0C7E862
:1006A000DFEF4FE303C0C7E8DFEF4FE06AE2C801C6
:1006B0000E9449024D2F69E2C8010E9449024C2F55
:1006C00068E2C8010E94490280E0DF91CF911F914A
:1006D0000F9108950F931F93CF938C01C0E340E0D7
:1006E0006C2FC8010E94490260E16C0F40E0C80114
:1006F0000E94490260E26C0F40E0C8010E9449027A
:10070000CF5FCE3361F740E060E6C8010E94490246
:1007100040E060E7C801CF911F910F910C9449020E
:100720000F931F93CF93DF93EC01062F0E94DA0102
:1007300060E8CE010E94EC02182F6AE070E080E0D1
:1007400090E011110CC00E94DA22602FCE010E94AD
:100750000403882339F06AE070E080E090E00E94B2
:10076000DA2228C06AE070E080E090E00E94DA229D
:10077000CE010E946A0343E06BE2CE010E9449026F
:1007800024E044E660E6CE010E94A80220E040E6B4
:1007900060E7CE010E94A80260E0CE010E94EC0258
:1007A000C82F8823C1F26AE070E080E090E00E94E8
:1007B000DA221C2F812FDF91CF911F910F91089585
:1007C0000F931F93CF93DF9300D01F92CDB7DEB767
:1007D0004130B1F40C831B83890122273327502F2A
:1007E0005C71402F437078E0579F400D11244860A2
:1007F0004A8355E0169507955A95E1F709830DC090
:10080000A80123E0569547952A95E1F7498302957B
:10081000000F007E0A831C821B8224E0AE014F5F22
:100820005F4F0E946E020F900F900F900F90DF911C
:10083000CF911F910F910895EF92FF920F931F9305
:10084000CF93DF9300D01F92CDB7DEB77A01890135
:10085000FA011082F901108211821282138224E0BF
:10086000AE014F5F5F4F0E940C022A813981822FB7
:1008700090E065E0959587956A95E1F7F8E03F9FF0
:10088000800D911D1124092E000CAA0BBB0BF80141
:1008900080839183A283B38323FF25C032E0880F36
:1008A000991FAA1FBB1F3A95D1F72370820F911D84
:1008B000A11DB11DBA2FA92F982F88272B81820F38
:1008C000911DA11DB11DBA2FA92F982F88272C810A
:1008D000820F911DA11DB11D80839183A283B383DB
:1008E00081E0F70180830F900F900F900F90DF91C0
:1008F000CF911F910F91FF90EF900895FF920F936A
:100900001F93CF93DF93EC01F62E8A01AC014A5F6F
:100910005F4F65E06F0D2D810E946E020130110561
:1009200019F48D8180648D8364E06F0D4D81CE015B
:100930000E94490209811A812B813C8148816F2DD7
:10094000CE010E94E003DF91CF911F910F91FF90A4
:1009500008950F931F93CF93DF93EC01162F9C0103
:100960002F5F3F4FAC010E941C046FEF610FCE015F
:100970000E94F001082F64E0610FCE010E94F00197
:1009800003FB002700F90E87282F2F702D83AE015F
:100990004A5F5F4F65E0610FCE01DF91CF911F91FC
:1009A0000F910C940C02615028E048E00C94A802CE
:1009B000AF92BF92CF92DF92EF92FF920F931F936D
:1009C000CF93DF9300D0CDB7DEB75C016B0180E33E
:1009D000898380E48A8380E58B83FB0110828E010A
:1009E0000F5F1F4F83E0E82EE00EF801F1908F01BA
:1009F0006F2DC5010E94F001982F987083FD04C0EF
:100A0000F394F601F08203C0E012EFCF92E0892F59
:100A10000F900F900F90DF91CF911F910F91FF904A
:100A2000EF90DF90CF90BF90AF900895FC01608B66
:100A300008951F93CF93DF93EC01162F61E088890F
:100A40000E94962461E088890E94D2240E94670F48
:100A5000612FCE010E94900391E0811101C090E0CE
:100A6000892FDF91CF911F9108958F929F92AF921E
:100A7000BF92DF92EF92FF920F931F93CF93DF937A
:100A80001F92CDB7DEB77C01D62E480159016AE02E
:100A900070E080E090E049830E94DA2260E8C701BC
:100AA0000E94EC02182F4981882329F06AE070E047
:100AB00080E090E01AC0D11004C09501840160E28A
:100AC00006C081E0D81206C09501840164E2C70126
:100AD0000E94E00360E0C7010E94EC02182F6AE068
:100AE00070E080E090E0112321F00E94DA22812F53
:100AF00003C00E94DA2280E00F90DF91CF911F9116
:100B00000F91FF90EF90DF90BF90AF909F908F90EC
:100B100008958F929F92AF92BF92EF92FF920F93A0
:100B20001F93CF93DF931F921F92CDB7DEB77C0147
:100B3000562F480159016AE070E080E090E04A8356
:100B400059830E94DA2260E8C7010E94EC02182F44
:100B50004A815981882329F06AE070E080E090E0C2
:100B600031C05230B1F040F4552379F05130F9F4EE
:100B70009501840164E018C0543099F070F055304C
:100B8000B1F49501840168E10FC09501840160E032
:100B90000BC09501840168E007C09501840160E104
:100BA00003C09501840164E1C7010E94E00360E095
:100BB000C7010E94EC02182F6AE070E080E090E02C
:100BC000112321F00E94DA22812F03C00E94DA2231
:100BD00080E00F900F90DF91CF911F910F91FF90C8
:100BE000EF90BF90AF909F908F900895CF92DF923B
:100BF0000F931F93FC01208341835283638374838B
:100C0000093008F008E005833696D60110E0CD01E2
:100C10008C199D09801791071CF48D918193F7CF52
:100C200080E01F910F91DF90CF900895EF92FF9297
:100C30000F931F93FC01208341835283638374834A
:100C4000093008F008E005833696D70110E0CD01A1
:100C50008E199F09801791071CF48D918193F7CF0E
:100C600080E01F910F91FF90EF900895FC01118299
:100C7000128213821482158210821686178680E0F3
:100C80000895CF92DF92EF92FF920F931F93CF932D
:100C9000DF931F92CDB7DEB77C016B0100E010E05F
:100CA000BE016F5F7F4FC7010E94D8040F5F1F4FC7
:100CB000823021F40233110599F720C00233110567
:100CC000E9F0A6016981C7010E947E046981C7011C
:100CD0000E94D30400E010E00F5F1F4F6981615054
:100CE000C7010E94F00183FF04C002331105A1F780
:100CF00007C00233110521F080E003C086E001C087
:100D000087E00F90DF91CF911F910F91FF90EF90AF
:100D1000DF90CF900895AF92BF92CF92DF92EF9283
:100D20000F93CF935C01C02F0E2DEC2E0E94F60581
:100D30006C2F70E0C501CF910F91EF90DF90CF90B5
:100D4000BF90AF900C944106EF92FF920F93CF9318
:100D5000DF93EC010E94160660E070E0CE01DF91A7
:100D6000CF910F91FF90EF900C944106CF93DF93BA
:100D7000EC010E94D40280FF07C061E6CE010E9410
:100D8000A90420E041E008C081FF0CC061E7CE016A
:100D90000E94A90420E042E06CE2CE010E94A80279
:100DA00080E001C084E0DF91CF910895EF92FF923F
:100DB0000F931F93CF93DF93EC018B017A010E9475
:100DC000B606811111C09D81F8019083DE0116964F
:100DD000F7012D8130E0BF016E197F09621773079B
:100DE0002CF49D919193F5CFF8011082DF91CF9172
:100DF0001F910F91FF90EF900895CF92DF92EF92A5
:100E0000FF920F931F93CF93DF931F921F92CDB743
:100E1000DEB76C017B018A0129833A830E94B60602
:100E200029813A81811123C0F6019581F8019083CF
:100E3000F6014181528163817481F70140835183BE
:100E400062837383D6011696B90120E030E0F60183
:100E5000458150E02417350764F42830310549F006
:100E60009D91FB019193BF012F5F3F4FF0CFF801A0
:100E700010820F900F90DF91CF911F910F91FF90F3
:100E8000EF90DF90CF9008950E94D402837011F408
:100E900084E0089583E008956DE20E94F001887F68
:100EA00009F085E00895FC0161817281838194815C
:100EB0000895FC0186850895FC0180810895FC0158
:100EC000108A118A128A138A148A158A168A178A36
:100ED000148E158E168E178E408351836283738312
:100EE00008952F923F924F925F926F927F928F92CE
:100EF0009F92AF92BF92CF92DF92EF92FF920F93A9
:100F00001F93CF93DF93CDB7DEB72C970FB6F8942E
:100F1000DEBF0FBECDBF1C01CB01BA0128013901D4
:100F2000A90198010E9402256D837E838F83988793
:100F300020E030E0A901C701B6010E946F25181614
:100F40000CF09BC0A70196016D817E818F819885F1
:100F50000E94D326D10154962D913D914D915C91E3
:100F600057970E9403254B015C01F101648B758B3F
:100F7000868B978B80914C0390914D0301969093B3
:100F80004D0380934C0380819181A281B381898339
:100F90009A83AB83BC83B05889879A87AB87BC8719
:100FA0009C01AD01C501B4010E946F2587FF05C0FA
:100FB00089859A85AB85BC850EC029813A814B8194
:100FC0005C81C501B4010E94CE2618164CF48981BB
:100FD0009A81AB81BC81F101848B958BA68BB78BF9
:100FE000D10114962D913D914D915C9117976D8192
:100FF0007E818F8198850E94D3264B015C01F1018F
:1010000024893589468957896085718582859385CC
:101010000E94D3269B01AC01C501B4010E940325A7
:101020004B015C01D10150962D913D914D915C9108
:101030005397C301B2010E940225A70196010E94A5
:101040007425F10124853585468557850E94D32670
:101050009B01AC01C501B4010E940225D101589643
:101060006D937D938D939C935B97F101408A518A98
:10107000628A738A80E090E002C081E090E02C9662
:101080000FB6F894DEBF0FBECDBFDF91CF911F9199
:101090000F91FF90EF90DF90CF90BF90AF909F9017
:1010A0008F907F906F905F904F903F902F9008951A
:1010B00040E052EC61E070E085E094E00E9468124C
:1010C00067E372E085E094E00C949E14CF93DF9385
:1010D000EC0160E1CE010E941905882369F062E30A
:1010E00070E080E090E00E94DA2269E472E085E03E
:1010F00094E00E949E14EDCF6CE572E085E094E0F0
:10110000DF91CF910C949E14CF93DF9361157105FD
:10111000F1F0EB0121E1FB0111922A95E9F7F89436
:101120009B01275F3F4FAB014C5F5F4F0E94FD0665
:10113000811109C00E94A9226D837E838F839887C5
:1011400080E090E002C081E090E0789402C082E00C
:1011500090E0DF91CF9108951F920F920FB60F92FA
:1011600011240BB60F922F933F934F935F936F937E
:101170007F938F939F93AF93BF93EF93FF93E091F0
:101180005003F09151031995FF91EF91BF91AF91E9
:101190009F918F917F916F915F914F913F912F918F
:1011A0000F900BBE0F900FBE0F901F9018951F92BF
:1011B0000F920FB60F9211240BB60F922F933F93FD
:1011C0004F935F936F937F938F939F93AF93BF934F
:1011D000EF93FF93E0914E03F0914F031995FF9128
:1011E000EF91BF91AF919F918F917F916F915F919F
:1011F0004F913F912F910F900BBE0F900FBE0F900C
:101200001F901895CF92DF92EF92FF92CF93DF93CA
:101210006B017C01EA01F894109280001092810029
:10122000109285001092840020E030E040E857E4FE
:101230000E94D3269B01AC0160E074E284E79BE44A
:101240000E9474250E94ED25613021E0720781051E
:10125000910550F08091810085608093810060E06D
:1012600074E080E090E036C061347105810591053D
:1012700050F08091810084608093810060E071E093
:1012800080E090E027C0693071058105910550F03C
:101290008091810083608093810060E470E080E051
:1012A00090E018C0623071058105910550F0809181
:1012B000810082608093810068E070E080E090E0CF
:1012C00009C08091810081608093810061E070E0BD
:1012D00080E090E00E941C269B01AC01C701B60192
:1012E0000E94D3269B01AC0160E074E284E79BE49A
:1012F0000E94742520E030E040E85FE30E94022570
:101300000E94ED256115710521E08207910550F4D9
:10131000611571058105910549F461E070E080E097
:1013200090E004C06FEF7FEF80E090E07093890061
:101330006093880080918100886080938100809113
:101340006F00826080936F00D0935103C09350036D
:101350007894DF91CF91FF90EF90DF90CF90089538
:10136000CF92DF92EF92FF92CF93DF936B017C01DC
:10137000EA01F8941092B0001092B1001092B200FD
:1013800020E030E040E853E40E94D3269B01AC010A
:1013900060E074E284E79BE40E9474250E94ED25DE
:1013A000613021E072078105910550F08091B10014
:1013B00087608093B10060E074E080E090E054C00A
:1013C000613871058105910550F08091B10086600A
:1013D0008093B10060E071E080E090E045C061344E
:1013E00071058105910550F08091B1008560809371
:1013F000B10060E870E080E090E036C061327105D5
:101400008105910550F08091B10084608093B10016
:1014100060E470E080E090E027C0693071058105EC
:10142000910550F08091B10083608093B10060E23B
:1014300070E080E090E018C0623071058105910590
:1014400050F08091B10082608093B10068E070E05C
:1014500080E090E009C08091B10081608093B1008C
:1014600061E070E080E090E00E941C269B01AC01EE
:10147000C701B6010E94D3269B01AC0160E074E273
:1014800084E79BE40E94742520E030E040E85FE3BD
:101490000E9402250E94ED256F3F7105810591058F
:1014A00009F050F4611571058105910549F461E079
:1014B00070E080E090E004C06FEF70E080E090E0CA
:1014C0006093B3008091B10082608093B1008091FD
:1014D0007000826080937000D0934F03C0934E03DE
:1014E0007894DF91CF91FF90EF90DF90CF900895A7
:1014F000F89460E081E30E94D2247894089561E03A
:1015000081E30E9496240C94780AF89461E081E3C8
:101510000E94D22478940895F89489E00E9462236E
:1015200078940C940B0BCF92DF92EF92FF920E9473
:101530008C0A6B017C0120E030E84BE354E40E940C
:101540006F25181634F0FF90EF90DF90CF900C9439
:10155000850A20E030E844E554E4C701B6010E9462
:10156000CE2687FD06C0FF90EF90DF90CF900C94C1
:10157000780AFF90EF90DF90CF9008958F929F921E
:10158000AF92BF92CF92DF92EF92FF92CF93DF9311
:101590004115510589F1EA0188809980AA80BB80B4
:1015A000A50194010E9402256B017C01A501940113
:1015B0006C817D818E819F810E9402259B01AC01FF
:1015C000C701B6010E9474254B015C01C884D9840F
:1015D000EA84FB84A70196016C857D858E859F85B5
:1015E0000E9402259B01AC01C501B4010E94D326D3
:1015F000A70196010E9403256B017C01C701B6017A
:10160000DF91CF91FF90EF90DF90CF90BF90AF90A0
:101610009F908F900895CF92DF92EF92FF92BC013E
:10162000990F880B990B0E941E262AE939E949E196
:1016300050E40E94D3262AE939E14CE753E40E94A2
:1016400002256B017C0120E030E040E451E40E947F
:101650006F2587FD13C023E333E94BE554E4C7014D
:10166000B6010E94CE2618167CF493E3C92E93E9A6
:10167000D92E9BE5E92E94E4F92E06C0C12CD12C7D
:1016800080E4E82E81E4F82EC701B601FF90EF90C8
:10169000DF90CF900895F89460E070E082E00E94BF
:1016A0008723789469E772E085E094E00C949E14B7
:1016B00061E082E00E9496240C944B0BF8946FEF4B
:1016C00070E082E00E94872378946EE872E085E003
:1016D00094E00C949E14EF92FF920F931F93CF937C
:1016E000DF93EC01F8948AE00E9462237C018BE096
:1016F0000E9462238C017894C7010E940B0B6883BF
:1017000079838A839B83C8010E940B0B6C837D8342
:101710008E839F83DF91CF911F910F91FF90EF9068
:101720000895F89460E080E30E94D22478940895AC
:10173000CF93DF93EC01F894BC0185E00E948723EE
:10174000BE0187E00E9487237894DF91CF910895AE
:10175000CF93DF93EC01F894BC0186E00E948723CD
:10176000BE0188E00E9487237894DF91CF9108958D
:101770008091720381111DC080917303811119C082
:1017800080917903811115C080917A03811111C074
:101790000E945E0B80E090E00E94A80B10927B03F9
:1017A00081E08093720364EA72E085E094E00C9437
:1017B0009E14089580917203882301F180E090E0E7
:1017C0000E94980B8FEF90E00E94A80B0E94910B53
:1017D0006FE070E080E090E00E94DA220E944B0B04
:1017E00080E090E00E94A80B10927B03109272039D
:1017F00064EB72E085E094E00C949E140895CF931E
:10180000DF93CDB7DEB728970FB6F894DEBF0FBED3
:10181000CDBF80917203811104C08091730388232E
:1018200089F1CE0101960E946B0B2DEC3CEC4CE251
:1018300052E469817A818B819C810E94CE2687FF48
:101840000CC02DEC3CEC4CE252E46D817E818F812A
:1018500098850E94CE2687FD0EC0809174038D7FEF
:10186000809374031092730365EC72E085E094E05A
:101870000E949E1407C0809174038D7F809374032F
:101880001092730328960FB6F894DEBF0FBECDBF3B
:10189000DF91CF910895CF93DF93809172038111EF
:1018A00004C08091740380FF32C0F8948AE00E94E3
:1018B0006223EC018BE00E9462237894CD2B31F0FF
:1018C000892B21F010929E0310929D03F89489E0D9
:1018D0000E9462237894892B21F010929C0310922D
:1018E0009B03F8948EE00E946223EC018DE00E943D
:1018F00062237894CD2B31F0892B21F010929A033A
:1019000010929903809174038E7F80937403DF910A
:10191000CF9108950F931F93CF93DF93F89460E0D6
:1019200085E00E94D22460E087E00E94D22460E03B
:1019300086E00E94D22460E088E00E94D22460E029
:101940008DE00E94D22460E08CE00E94D224789442
:1019500061E085E00E94962461E087E00E94962481
:1019600061E086E00E94962461E088E00E9496246F
:1019700061E08DE00E94962461E08CE00E94962454
:1019800080E090E00E94A80B80E090E00E94980B1D
:101990000E94910B61E080E30E949624F89461E03C
:1019A0008DE00E94D22461E08CE00E94D2247894E1
:1019B0006AEF70E080E090E00E94DA22F8948EE016
:1019C0000E9462238C018DE00E946223EC0189E079
:1019D0000E9462237894095912400031110530F4B5
:1019E000C959D240609710F410927903F89460E0DE
:1019F0008DE00E94D22460E08CE00E94D224789492
:101A00006AEF70E080E090E00E94DA220E94850A8E
:101A10006AEF70E080E090E00E94DA22F89488E0BB
:101A20000E9462237894892B11F010927A03DF913F
:101A3000CF911F910F910C94780A8F929F92AF9241
:101A4000BF92CF92DF92EF92FF920F931F93CF93AB
:101A5000DF9380917203882309F4DDC0F8940E941B
:101A6000B5226B017C018091950390919603A09122
:101A70009703B0919803A7019601281B390B4A0BD5
:101A80005B0BCA01B9010E941C26C0929503D0923B
:101A90009603E0929703F092980320E030E04AE743
:101AA00054E40E9474256B017C0160917503709170
:101AB0007603809177039091780340E252E00E9490
:101AC000BE0A609391037093920380939303909363
:101AD0009403F8948EE00E9462235C018DE00E94E2
:101AE0006223EC017894C5010E940B0B4B015C0151
:101AF000CE010E940B0B9B01AC01C501B4010E94F9
:101B0000032520E030E040E05FE30E94D3264B0154
:101B10005C0160938D0370938E0380938F03909389
:101B2000900320E030E04AE754E4C701B6010E9488
:101B300074256B017C014091910350919203609157
:101B40009303709194039501840182E593E00E94D0
:101B50007107892B09F05EC0C0906A03D0906B03B7
:101B6000E0906C03F0906D0320E030E040E251EC37
:101B7000C701B6010E946F2587FF28C080E090E072
:101B80000E94980BC701B601905840E152E00E94B4
:101B9000BE0A0E94ED25CB016536710510F084E682
:101BA00090E00E94A80B20E030E040EA51E4609110
:101BB00091037091920380919303909194030E94FA
:101BC0006F2587FF27C00E94910B24C020E030E0E2
:101BD00040E251E4C701B6010E94CE261816D4F4A3
:101BE000F89461E080E30E94D224789480E090E051
:101BF0000E94A80B40E052E0C701B6010E94BE0A55
:101C00000E94ED25CB016A36710510F089E690E05F
:101C10000E94980B7894DF91CF911F910F91FF90C4
:101C2000EF90DF90CF90BF90AF909F908F900895EE
:101C3000EF92FF920F93CF93DF93CDB7DEB7289744
:101C40000FB6F894DEBF0FBECDBF85E089838CEC64
:101C50008A83E2E7F3E080818B8381818C838281B8
:101C60008D83F894CE0101967C0108E020E041E6E6
:101C700050E060E070E08CE793E00E94A406789466
:101C800028960FB6F894DEBF0FBECDBFDF91CF917F
:101C90000F91FF90EF900895EF92FF920F93CF93E3
:101CA000DF93CDB7DEB728970FB6F894DEBF0FBE2F
:101CB000CDBF85E089838CEC8A831B821C821D82C8
:101CC0001E82809174038F83F894CE0101967C016B
:101CD00008E020E049E950E060E070E08CE793E044
:101CE0000E94A406789428960FB6F894DEBF0FBE23
:101CF000CDBFDF91CF910F91FF90EF90089580912C
:101D00007203882361F080917B03882341F00E9455
:101D10004C0E67ED72E085E094E00C949E140895FB
:101D2000CF93DF93CDB7DEB761970FB6F894DEBFE0
:101D30000FBECDBFBE016F5F7F4F8CE793E00E9467
:101D40008408892B09F054C08A85853009F050C079
:101D50008B858C3C09F04CC089819A81AB81BC8118
:101D600080359105A105B10519F40E94B80B40C05A
:101D700081359105A105B10519F40E94DA0B38C02F
:101D800080369105A105B10589F46C857D8580E0DB
:101D900090E00E941C2660937503709376038093F5
:101DA00077039093780310927B0322C089399105C1
:101DB000A105B105E9F464EF72E085E094E00E94CA
:101DC00053144C855D856E857F852AE030E085E083
:101DD00094E00E94A41561E173E085E094E00E9424
:101DE00053144AE050E0688985E094E00E94B815F9
:101DF00061960FB6F894DEBF0FBECDBFDF91CF91D5
:101E00000895E2E7F3E010821182128210927B03C0
:101E100040E050E060EF71E482E593E00E945F07EC
:101E2000E2E5F3E086E696E6A6E2BFE384839583E7
:101E3000A683B78380E090E0A0EEBFE38087918720
:101E4000A287B38714861586168617860895E1E95A
:101E5000F0E08081887F82608083E1EAF0E0808129
:101E6000887F826080830E947F0A0E94580B0E94B4
:101E70008A0C0E94780A0E944B0B80E090E00E943E
:101E8000A80B80E090E00C94980B0E9458086AE13F
:101E900073E085E094E00E9453148CE793E00C9487
:101EA0006608F89481E080937B037894089541E577
:101EB0005FE060E070E080E89FE30E94020948E193
:101EC0005EE060E070E088E492E40C94B00961E0C8
:101ED00085E30E94D22461E085E30E9496248CB5BC
:101EE00080618CBD8CB580648CBD61E084E30E9410
:101EF000962461E083E30C9496248CB58F7B8CBD93
:101F00000895811103C08CB5806202C08CB58F7DAD
:101F10008CBD08959CB5937F892B8CBD08959CB58D
:101F2000282F23709C7F922B9CBD2DB582FB992777
:101F300090F9822F8E7F892B8DBD0895FC01248519
:101F40003585F901E05CFF4F8081918132962081D7
:101F50003181821B930B8F7399270895DC011C96A6
:101F6000ED91FC911D97DF01A05CBF4F2D913C913D
:101F7000119712968D919C9111972817390739F076
:101F80008D919C91E80FF91F808190E008958FEF6B
:101F90009FEF0895FC01A485B585FD01E05CFF4F2E
:101FA000208131813296808191812817390779F01B
:101FB00080819181A80FB91F8C91208131812F5F81
:101FC0003F4F2F7333273183208390E008958FEFA5
:101FD0009FEF0895FC0181A1882329F0A489B58988
:101FE0008C9186FFFBCF11A208950F931F93CF937F
:101FF000DF93FC01A685B7858D01005C1F4FE801CA
:102000008881998101968F739927AD014E5B5F4F4F
:10201000EA012881398182179307D1F3E8012881E9
:102020003981A20FB31F6C93A685B785A05CBF4F03
:1020300011969C938E93A689B7892C9181E090E0AC
:10204000078C02C0880F991F0A94E2F7822B8C93A9
:1020500081E081A30488F589E02D808180648083FC
:1020600081E090E0DF91CF911F910F910895089545
:102070001F920F920FB60F9211240BB60F922F934F
:102080003F934F935F936F937F938F939F93AF9300
:10209000BF93EF93FF938091C00082FD07C08091B2
:1020A000C60063E076E00E94671F02C08091C60010
:1020B000FF91EF91BF91AF919F918F917F916F9120
:1020C0005F914F913F912F910F900BBE0F900FBEDC
:1020D0000F901F90189508951F920F920FB60F92B0
:1020E00011240BB60F922F933F934F935F936F93EF
:1020F0007F938F939F93AF93BF93EF93FF938091C1
:10210000C80082FD07C08091CE006BE775E00E9499
:10211000671F02C08091CE00FF91EF91BF91AF91F8
:102120009F918F917F916F915F914F913F912F91EF
:102130000F900BBE0F900FBE0F901F901895089533
:102140001F920F920FB60F9211240BB60F922F937E
:102150003F934F935F936F937F938F939F93AF932F
:10216000BF93EF93FF938091D00082FD07C08091D1
:10217000D60063EF74E00E94671F02C08091D60012
:10218000FF91EF91BF91AF919F918F917F916F914F
:102190005F914F913F912F910F900BBE0F900FBE0B
:1021A0000F901F90189508951F920F920FB60F92DF
:1021B00011240BB60F922F933F934F935F936F931E
:1021C0007F938F939F93AF93BF93EF93FF938091F0
:1021D000300182FD07C0809136016BE674E00E94F9
:1021E000671F02C080913601FF91EF91BF91AF91BF
:1021F0009F918F917F916F915F914F913F912F911F
:102200000F900BBE0F900FBE0F901F90189585E09A
:1022100094E00E949E0F892B11F00E94371083EEEC
:1022200093E00E949E0F892B11F00E946B1081ECAD
:1022300093E00E949E0F892B11F00E949F108FE95E
:1022400093E00E949E0F892B11F00C94D3100895F7
:102250001F920F920FB60F9211240BB60F922F936D
:102260003F938F939F93EF93FF932091FF053091BE
:10227000000680910106909102062817390731F473
:102280008091C1008F7D8093C10014C0E091010650
:10229000F0910206E154FA4F20818091010690915D
:1022A000020601968F739927909302068093010688
:1022B0002093C600FF91EF919F918F913F912F91B5
:1022C0000F900BBE0F900FBE0F901F9018951F928E
:1022D0000F920FB60F9211240BB60F922F933F93CC
:1022E0008F939F93EF93FF9320917705309178051B
:1022F0008091790590917A052817390731F48091FA
:10230000C9008F7D8093C90014C0E0917905F091D8
:102310007A05E95CFA4F20818091790590917A05E0
:1023200001968F73992790937A058093790520936E
:10233000CE00FF91EF919F918F913F912F910F9040
:102340000BBE0F900FBE0F901F9018951F920F920B
:102350000FB60F9211240BB60F922F933F938F93CA
:102360009F93EF93FF932091EF043091F0048091BD
:10237000F1049091F2042817390731F48091D100CB
:102380008F7D8093D10014C0E091F104F091F204AC
:10239000E155FB4F20818091F1049091F204019668
:1023A0008F7399279093F2048093F1042093D600C1
:1023B000FF91EF919F918F913F912F910F900BBEC5
:1023C0000F900FBE0F901F9018951F920F920FB68F
:1023D0000F9211240BB60F922F933F938F939F93DD
:1023E000EF93FF9320916704309168048091690412
:1023F00090916A042817390731F4809131018F7D5B
:102400008093310114C0E0916904F0916A04E95DA0
:10241000FB4F20818091690490916A0401968F732B
:10242000992790936A048093690420933601FF9161
:10243000EF919F918F913F912F910F900BBE0F9035
:102440000FBE0F901F9018958F929F92AF92BF92E0
:10245000CF92DF92EF92FF920F931F93CF93DF9370
:10246000CDB7DEB7FC011382128288EE93E0A0E0C4
:10247000B0E084839583A683B78382E393E091835E
:1024800080837587648757874687318B208B138BB2
:10249000028BF58AE48AD78AC68AB18EA08E938E83
:1024A000828E8889848F8989858F8A89868F8B8996
:1024B000878F8C8980A3DF91CF911F910F91FF901F
:1024C000EF90DF90CF90BF90AF909F908F90089546
:1024D000CF92DF92EF92FF920F931F93CF93DF93F0
:1024E000EC016A017B014115514E6105710509F14D
:1024F000EC89FD8981E090E008A002C0880F991F57
:102500000A94E2F7808360E079E08DE390E0A70130
:1025100096010E94452789019A010150110921095C
:1025200031093695279517950795980101151041A2
:10253000A8F0EC89FD89108260E874E88EE190E0F3
:10254000A70196010E944527DA01C9010197A10957
:10255000B109B695A795979587959C01E889F98962
:102560003083EA89FB89208319A2EE89FF894081A3
:1025700081E090E09C010C8C02C0220F331F0A9472
:10258000E2F7242B2083EE89FF8940819C010D8C8A
:1025900002C0220F331F0A94E2F7242B2083EE8916
:1025A000FF8940819C010E8C02C0220F331F0A94C8
:1025B000E2F7242B2083EE89FF8920810F8C02C053
:1025C000880F991F0A94E2F7809582238083DF9118
:1025D000CF911F910F91FF90EF90DF90CF900895D2
:1025E000CF92DF92EF92FF921F93CF93DF93EC0194
:1025F0006A017B01122F4115514E6105710509F1E8
:10260000EC89FD8981E090E008A002C0880F991F45
:102610000A94E2F7808360E079E08DE390E0A7011F
:1026200096010E944527DA01C9010197A109B10964
:10263000B695A79597958795AC01411580E1580708
:10264000A8F0EC89FD89108260E874E88EE190E0E2
:10265000A70196010E944527BA01A90141505109DD
:10266000610971097695679557954795E889F989C4
:102670005083EA89FB894083E88DF98D1083EE89C8
:10268000FF89408181E090E09C010C8C02C0220F08
:10269000331F0A94E2F7242B2083EE89FF894081BF
:1026A0009C010D8C02C0220F331F0A94E2F7242BE9
:1026B0002083EE89FF8940819C010E8C02C0220F8D
:1026C000331F0A94E2F7242B2083EE89FF892081AF
:1026D0000F8C02C0880F991F0A94E2F7809582231D
:1026E0008083DF91CF911F91FF90EF90DF90CF908B
:1026F0000895CF93DF93FC0186859785EC01C05C3C
:10270000DF4FDC01AE5BBF4F288139818D919C91F9
:10271000119728173907C1F7A689B7893C9181E03D
:1027200090E0AC01048C02C0440F551F0A94E2F7FC
:10273000242F209523232C93A689B7893C91AC01A3
:10274000058C02C0440F551F0A94E2F7242F2095F0
:1027500023232C93A689B7893C91AC01068C02C037
:10276000440F551F0A94E2F7242F209523232C931E
:10277000A689B7892C91078C02C0880F991F0A94EB
:10278000E2F7809582238C9384859585FC01EE5B2E
:10279000FF4F20813181329731832083DF91CF91A8
:1027A000089581E00895CF92DF92EF92FF920F9308
:1027B0001F93CF93DF936C01EB017B01E40EF51EB9
:1027C00000E010E0CE15DF0561F06991D601ED91D2
:1027D000FC910190F081E02DC6011995080F191F99
:1027E000F1CFC801DF91CF911F910F91FF90EF9032
:1027F000DF90CF900895EF92FF920F931F93CF93A6
:10280000DF937C01FB0100E010E06491EF01219671
:10281000662361F0D701ED91FC910190F081E02DEC
:10282000C7011995080F191FFE01EFCFC801DF91ED
:10283000CF911F910F91FF90EF900895AF92BF92AB
:10284000CF92DF92EF92FF920F931F93CF93DF937C
:102850006C017B01C0E0D0E000E010E0D7011496ED
:102860008D919C911597C817D90788F4D601ED91E1
:10287000FC91A080B180BE01C7010E94381C682F66
:10288000C601F5011995080F191F2196E7CFC80158
:10289000DF91CF911F910F91FF90EF90DF90CF903C
:1028A000BF90AF9008950C945320DC01ED91FC9102
:1028B0000190F081E02D1994DB01ED91FC911197CD
:1028C0000190F081E02DBC01CD0119940F931F936D
:1028D000CF93DF93EC016DE00E9455148C016AE008
:1028E000CE010E945514800F911FDF91CF911F914F
:1028F0000F9108950F931F93CF93DF93EC010E94E4
:10290000FB138C01CE010E946614800F911FDF9192
:10291000CF911F910F9108950F931F93CF93DF9342
:10292000EC010E941E148C01CE010E946614800FDF
:10293000911FDF91CF911F910F9108950F931F93D6
:10294000CF93DF93EC010E9453208C01CE010E94B3
:102950006614800F911FDF91CF911F910F91089501
:102960000F931F93CF93DF93EC010E9455148C01BA
:10297000CE010E946614800F911FDF91CF911F91AD
:102980000F9108950F931F93CF93DF93EC010E9453
:102990005C148C01CE010E946614800F911FDF91A0
:1029A000CF911F910F9108958F929F92AF92BF92F6
:1029B000CF92DF92EF92FF920F931F93CF93DF930B
:1029C000CDB7DEB7A1970FB6F894DEBF0FBECDBF6F
:1029D0006C01142FE52FCB01022F19A2223008F42D
:1029E0000AE07E0121E2E20EF11C802E912CA12C46
:1029F000B12C612F7E2FA50194010E944527029FD3
:102A00001019112481E0E81AF1081A3014F4105D4D
:102A100001C0195CF7011083122FE32FCA01232B89
:102A2000242B252B31F7B701C6010E945320A19614
:102A30000FB6F894DEBF0FBECDBFDF91CF911F91CF
:102A40000F91FF90EF90DF90CF90BF90AF909F904D
:102A50008F900895CF92DF92EF92FF920F931F9382
:102A6000CF93DF93EC016A017B012115310579F4E5
:102A7000E881F9810190F081E02D642FDF91CF9101
:102A80001F910F91FF90EF90DF90CF9019942A3013
:102A90003105E9F477FF1AC06DE20E9455148C01EC
:102AA00044275527BA014C195D096E097F092AE0B0
:102AB000CE010E94D414800F911FDF91CF911F91FE
:102AC0000F91FF90EF90DF90CF9008952AE0B7012B
:102AD000A601CE01DF91CF911F910F91FF90EF9052
:102AE000DF90CF900C94D4149A01AB01770F660B52
:102AF000770B0C942A150F931F93CF93DF93EC0160
:102B00009A01AB01770F660B770B0E942A158C0197
:102B1000CE010E946614800F911FDF91CF911F910B
:102B20000F9108950F931F93CF93DF93EC010E94B1
:102B30002A158C01CE010E946614800F911FDF912F
:102B4000CF911F910F9108952115310541F4DC01BA
:102B5000ED91FC910190F081E02D642F19940C947B
:102B6000D4149A01462F50E060E070E00C94A41554
:102B70000F931F93CF93DF93EC019A01462F50E000
:102B800060E070E00E94A4158C01CE010E946614E2
:102B9000800F911FDF91CF911F910F9108959A019E
:102BA000AB0160E070E00C94A4150F931F93CF93DA
:102BB000DF93EC019A01AB0160E070E00E94A41584
:102BC0008C01CE010E946614800F911FDF91CF917E
:102BD0001F910F9108950F931F93CF93DF93EC01F3
:102BE0000E94A4158C01CE010E946614800F911FD3
:102BF000DF91CF911F910F9108954F925F926F9245
:102C00007F928F929F92AF92BF92CF92DF92EF927C
:102C1000FF92CF93DF93EC016A017B01B22E9A0100
:102C2000AB01C701B6010E944027882319F06EE36B
:102C300073E027C026013701E89477F82FEF3FEFC4
:102C40004FE75FE7C301B2010E94402781110DC029
:102C50002FEF3FEF4FE75FE7C301B2010E946F25FF
:102C600018161CF462E473E00CC02FEF3FEF4FE73F
:102C70005FE4C701B6010E94CE2618169CF466E4F4
:102C800073E0CE01DF91CF91FF90EF90DF90CF9076
:102C9000BF90AF909F908F907F906F905F904F907C
:102CA0000C9453202FEF3FEF4FE75FECC701B601C5
:102CB0000E946F2587FDE3CF20E030E0A901C70126
:102CC000B6010E946F2587FF0AC06DE2CE010E9407
:102CD00055144C01F7FAF094F7F8F09402C0812CE7
:102CE000912CA12C60E070E080E09FE3AB1441F0F8
:102CF00020E030E040E251E40E947425A394F6CF36
:102D00009B01AC01C701B6010E9403252B013C01C8
:102D10000E94ED256B017C010E941C269B01AC01E9
:102D2000C301B2010E9402252B013C012AE0B70138
:102D3000A601CE010E94D4147C01E80CF91CBB2032
:102D400039F06AE473E0CE010E945320E80EF91EC8
:102D5000DB2CDD2039F120E030E040E251E4C3011A
:102D6000B2010E94D3262B013C010E94E6254B01B3
:102D7000770FAA08BB082AE030E0B501A401CE0114
:102D80000E942A15E80EF91EC501B4010E941E26F4
:102D90009B01AC01C301B2010E9402252B013C0141
:102DA000DA94D7CFC701DF91CF91FF90EF90DF90FA
:102DB000CF90BF90AF909F908F907F906F905F90DB
:102DC0004F9008950C94FD150F931F93CF93DF93AD
:102DD000EC010E94FD158C01CE010E946614800F4B
:102DE000911FDF91CF911F910F910895FC01DB019D
:102DF00011821082138212821582148216828D91A2
:102E00009C9111979183808312968D919C91139739
:102E10009383828314968D919C91159795838483D7
:102E200011961C921E9213961C921E921297159642
:102E30001C921E9214970895FC01DB0111821082EE
:102E4000138212821582148216828D919C911197A1
:102E50009183808312968D919C91139793838283A3
:102E600014968D919C9115979583848311961C924D
:102E70001E9213961C921E92129715961C921E92E9
:102E800014970895FC01808191810C94FD20CF93CB
:102E9000DF93EC0188819981009711F00E94FD2059
:102EA000198218821D821C821B821A82DF91CF91A7
:102EB00008950F931F93CF93DF93EC018B016F5F06
:102EC0007F4F888199810E949521009731F09983E5
:102ED00088831B830A8381E001C080E0DF91CF916A
:102EE0001F910F910895CF93DF93EC018881998111
:102EF000892B29F08A819B818617970760F4CE0180
:102F00000E945917882341F08C819D81892B19F4E7
:102F1000E881F981108281E0DF91CF910895EF92ED
:102F2000FF920F931F93CF93DF93EC017B018A01F4
:102F3000BA010E947317811104C0CE010E94471785
:102F400007C01D830C83B701888199810E941528D1
:102F5000CE01DF91CF911F910F91FF90EF900895D7
:102F6000FC01118210821382128215821482168251
:102F70006115710551F0FB0101900020E9F73197CF
:102F8000AF01461B570B0C948F1708950F931F9397
:102F9000CF93DF938C01EB01FC018081918100973D
:102FA00099F0428153812C813D814217530750F0A3
:102FB000688179810E9415288C819D81F801958313
:102FC000848313C00E94FD2088819981F801918338
:102FD00080838A819B81938382838C819D81958369
:102FE0008483198218821B821A821D821C82DF91BF
:102FF000CF911F910F910895CF93DF93EC01FB01C7
:103000008617970761F0608171816115710529F05C
:10301000448155810E948F1702C00E944717CE013C
:10302000DF91CF910895FC011182108213821282E8
:103030001582148216820C94FC17CF93DF93EC0157
:103040008617970711F00E94C617CE01DF91CF9126
:103050000895CF93DF93EC018617970711F00E9434
:10306000C617CE01DF91CF910895CF93DF93EC0186
:103070006115710559F0FB0101900020E9F73197C6
:10308000AF01461B570B0E948F1702C00E944717C3
:10309000CE01DF91CF910895CF93DF931F921F92BE
:1030A000CDB7DEB7FC011182108213821282158225
:1030B0001482168269831A82BE016F5F7F4F0E945D
:1030C00035180F900F90DF91CF9108950F931F93B4
:1030D000CF93DF93CDB7DEB729970FB6F894DEBF55
:1030E0000FBECDBF8C01862FF80111821082138292
:1030F000128215821482168250E0BE016F5F7F4FEC
:1031000090E00E94D028BE016F5F7F4FC8010E94EF
:10311000351829960FB6F894DEBF0FBECDBFDF91EC
:10312000CF911F910F9108950F931F93CF93DF932A
:10313000CDB7DEB762970FB6F894DEBF0FBECDBF36
:103140008C01CB01F8011182108213821282158248
:103150001482168250E0BE016F5F7F4F0E945E288E
:10316000BE016F5F7F4FC8010E94351862960FB68F
:10317000F894DEBF0FBECDBFDF91CF911F910F91AD
:1031800008950F931F93CF93DF93CDB7DEB7619769
:103190000FB6F894DEBF0FBECDBF8C01CB01F80196
:1031A000118210821382128215821482168250E0DC
:1031B000BE016F5F7F4F0E94D028BE016F5F7F4FBF
:1031C000C8010E94351861960FB6F894DEBF0FBE95
:1031D000CDBFDF91CF911F910F9108950F931F9352
:1031E000CF93DF93CDB7DEB7A2970FB6F894DEBFCB
:1031F0000FBECDBF8C01CB01BA01F8011182108244
:103200001382128215821482168230E0AE014F5F63
:103210005F4F0E947428BE016F5F7F4FC8010E94FC
:103220003518A2960FB6F894DEBF0FBECDBFDF9162
:10323000CF911F910F9108950F931F93CF93DF9319
:10324000CDB7DEB7A1970FB6F894DEBF0FBECDBFE6
:103250008C01CB01BA01F801118210821382128213
:1032600015821482168230E0AE014F5F5F4F0E94DC
:10327000A328BE016F5F7F4FC8010E943518A19639
:103280000FB6F894DEBF0FBECDBFDF91CF911F9177
:103290000F910895EF92FF920F931F93CF93DF93B7
:1032A000FC01248135816115710511F480E019C09C
:1032B00041155105A9F07B01EC018A01020F131F92
:1032C000B8010E947317882389F3288139818C8182
:1032D0009D81B701820F931F0E9415281D830C83C7
:1032E00081E0DF91CF911F910F91FF90EF900895B2
:1032F000FB0144815581608171810C944A196115EB
:10330000710551F0FB0101900020E9F73197AF0101
:10331000461B570B0C944A1980E00895CF93DF9316
:103320001F921F92CDB7DEB769831A8241E050E049
:10333000BE016F5F7F4F0E944A190F900F90DF917F
:10334000CF910895EF92FF920F931F93CF93DF9346
:1033500000D01F92CDB7DEB77C01862F4AE08E01E8
:103360000F5F1F4FB80190E00E946928F80101909B
:103370000020E9F73197AF01401B510BB801C7019D
:103380000E944A190F900F900F900F90DF91CF91EC
:103390001F910F91FF90EF900895EF92FF920F937E
:1033A0001F93CF93DF93CDB7DEB727970FB6F8946F
:1033B000DEBF0FBECDBF7C01CB014AE08E010F5FA7
:1033C0001F4FB8010E946928F80101900020E9F719
:1033D0003197AF01401B510BB801C7010E944A1938
:1033E00027960FB6F894DEBF0FBECDBFDF91CF9109
:1033F0001F910F91FF90EF900895EF92FF920F931E
:103400001F93CF93DF9300D000D0CDB7DEB77C0100
:10341000CB014AE08E010F5F1F4FB8010E94DB28ED
:10342000F80101900020E9F73197AF01401B510BE3
:10343000B801C7010E944A1926960FB6F894DEBF5C
:103440000FBECDBFDF91CF911F910F91FF90EF90F5
:103450000895EF92FF920F931F93CF93DF93CDB711
:10346000DEB72C970FB6F894DEBF0FBECDBF7C0140
:10347000CB01BA012AE08E010F5F1F4FA8010E9405
:103480007F28F80101900020E9F73197AF01401B38
:10349000510BB801C7010E944A192C960FB6F89437
:1034A000DEBF0FBECDBFDF91CF911F910F91FF9077
:1034B000EF900895EF92FF920F931F93CF93DF93B6
:1034C000CDB7DEB72B970FB6F894DEBF0FBECDBFDA
:1034D0007C01CB01BA012AE08E010F5F1F4FA801CA
:1034E0000E94AE28F80101900020E9F73197AF0162
:1034F000401B510BB801C7010E944A192B960FB609
:10350000F894DEBF0FBECDBFDF91CF911F910F9119
:10351000FF90EF900895CF93DF93EC01FB0144817E
:103520005581608171810E944A19811103C0CE01C9
:103530000E944717CE01DF91CF910895CF93DF937B
:10354000EC016115710561F0FB0101900020E9F7C4
:103550003197AF01461B570B0E944A19811103C0D6
:10356000CE010E944717CE01DF91CF910895CF93EE
:10357000DF93EC010E948E19811103C0CE010E94DD
:103580004717CE01DF91CF910895CF93DF93EC01E0
:103590000E94A219811103C0CE010E944717CE01DB
:1035A000DF91CF910895CF93DF93EC010E94CD1965
:1035B000811103C0CE010E944717CE01DF91CF9148
:1035C0000895CF93DF93EC010E94FD19811103C090
:1035D000CE010E944717CE01DF91CF910895CF937E
:1035E000DF93EC010E94291A811103C0CE010E94D1
:1035F0004717CE01DF91CF910895CF93DF93EC0170
:103600000E945A1A811103C0CE010E944717CE01B1
:10361000DF91CF910895CF93DF93DC01ED91FC9181
:10362000EB01A881B981309711F01097C9F4109778
:1036300059F0EB012C813D81232B31F08C9190E0EE
:1036400091958195910914C0309781F0DC01149611
:103650008D919C911597892B49F0808190E008C04D
:10366000BD01CF01DF91CF910C940C2880E090E058
:10367000DF91CF910895FC0144815581FB012481A4
:1036800035814217530729F40E940B1B21E0892B37
:1036900009F020E0822F0895FC0124813581232B3D
:1036A00031F421E061157105A1F0FB0108C0FC01B6
:1036B000808191816115710531F421E0FC018081E7
:1036C000882339F005C00E940C2821E0892B09F0DD
:1036D00020E0822F08950E940B1B892F881F8827C6
:1036E000881F08950E940B1B21E0181619060CF084
:1036F00020E0822F08950E940B1B21E01816190666
:103700000CF420E0822F08950E940B1B892F8095D6
:10371000881F8827881F0895EF92FF920F931F93A9
:10372000CF93DF938617970729F1FC012481358118
:10373000FB014481558124173507F1F4232BD1F087
:10374000DC01CD91DC91008111818991882391F078
:10375000082E000C990B0E94D6277C01F80181915C
:103760008F01082E000C990B0E94D627E816F90647
:1037700061F302C081E001C080E0DF91CF911F9131
:103780000F91FF90EF900895DB011496ED91FC915D
:103790001597DC0114962D913C9115972E1B3F0B2C
:1037A00024173507A0F02D913C912115310579F0B2
:1037B000DB016D917C916115710549F0CA01AF0182
:1037C000820F931F0E941C2821E0892B09F020E022
:1037D000822F0895FC0144815581FB0124813581AC
:1037E0004217530720F040E050E00C94C41B80E0E7
:1037F0000895FC0124813581FB0144815581241702
:103800003507A0F0FC0180819181009779F0FB01E0
:10381000608171816115710549F0241B350B820FA0
:10382000931F0E940C2821E0892B09F020E0822FB1
:103830000895FC01248135816217730730F480817B
:103840009181FC01E60FF71F40830895FC0124815C
:1038500035816217730720F480819181009729F4E4
:103860001092470687E496E00895860F971F089503
:10387000FC01248135816217730748F480819181AE
:10388000009729F0FC01E60FF71F8081089580E082
:1038900008950C94381C0F931F93CF93DF93411519
:1038A000510519F16115710501F1DC011496ED91D5
:1038B000FC9115972E173F0718F0FB01108215C0D9
:1038C000E21BF30BEA012197EC17FD0708F4EF0167
:1038D0008B01FC0160817181620F731FAE01C80111
:1038E0000E942A28C00FD11F1882DF91CF911F910B
:1038F0000F910895CF93DF93FC0124813581421706
:10390000530778F4C081D181062E000C770BCE01CD
:10391000840F951F0E940128009719F08C1B9D0BA6
:1039200002C08FEF9FEFDF91CF91089540E050E00C
:103930000C947A1CCF93DF93FC01248135814217CC
:10394000530780F4FB01DC01CD91DC916081718132
:10395000CE01840F951F0E944428009719F08C1BFC
:103960009D0B02C08FEF9FEFDF91CF91089540E054
:1039700050E00C949A1CDF92EF92FF920F931F93EA
:10398000CF93DF93DC0114962D913C91159742174C
:10399000530718F08FEF9FEF1DC08C01EA012196AD
:1039A000DC01ED91FC911197EC0FFD1FD08010828E
:1039B000ED90FC90062E000C770BC7010E94392871
:1039C000CE0DDF1DD882009729F3F80120813181C7
:1039D000821B930BDF91CF911F910F91FF90EF907E
:1039E000DF900895FC0144815581415051090C94A8
:1039F000BB1CAF92BF92CF92DF92EF92FF920F93D8
:103A00001F93CF93DF937B018A01FB014481558192
:103A10004115510561F1FC012481358121153105E4
:103A200031F12417350718F10217130718F089012F
:103A300001501109FC01A080B180C501DFEFCFEF7B
:103A40006501C00ED11EC816D906A0F0F70160812D
:103A500071810E944428009769F09C012A193B0952
:103A60000217130710F0D22FC32F0196ECCF8FEF60
:103A70009FEF02C08D2F9C2FDF91CF911F910F914F
:103A8000FF90EF90DF90CF90BF90AF900895FC0132
:103A900044815581FB0124813581421B530B0C94D9
:103AA000F91CBF92CF92DF92EF92FF920F931F9378
:103AB000CF93DF937C016B018A01E901241735075D
:103AC00020F4812F8901C42FD82F6DE273E0C70144
:103AD0000E94B017D60114968D919C91159780176E
:103AE0009107D0F08C179D0708F4EC01D601ED91F9
:103AF000FC911197EC0FFD1FB08010824D915C91ED
:103B0000BA01600F711FC7010E943518D601ED91EF
:103B1000FC91EC0FFD1FB082C701DF91CF911F9187
:103B20000F91FF90EF90DF90CF90BF900895CF93CB
:103B3000DF93EC01FB01248135810E94511DCE01F0
:103B4000DF91CF910895DC01ED91FC91309729F43C
:103B50000895861301C04083319680818111F9CF89
:103B600008952F923F924F925F926F927F928F9221
:103B70009F92AF92BF92CF92DF92EF92FF920F93FC
:103B80001F93CF93DF93FC0144805580411451046F
:103B900009F4D2C0FB01648075806114710409F4DA
:103BA000CBC07A016B018C01FA01A480B580A61804
:103BB000B708FC01C081D181A114B104C1F4F601A0
:103BC00060817181CE010E944428EC01892B09F4A7
:103BD000B3C0F7016081718144815581CE010E949B
:103BE000E627F70184819581C80FD91FE8CFB7FE7A
:103BF00002C04E0105C0FB0120803180420143C05C
:103C0000F60160817181C4010E9444282C01892B36
:103C100021F1320168187908A301B401CE010E9494
:103C2000E627C60DD71DF70160817181448155815A
:103C3000CE010E94E627F70184819581C80FD91F24
:103C4000F60184809580840C951CF801848195810F
:103C50008A0D9B1D95838483D3CFB401CE01DF9160
:103C6000CF911F910F91FF90EF90DF90CF90BF9079
:103C7000AF909F908F907F906F905F904F903F900C
:103C80002F900C941528B101CE010E944428009772
:103C900031F0EC01C60DD71D8A0C9B1CF4CF8414A7
:103CA000950409F449C0F80182819381881599052A
:103CB00030F4B401C8010E9459178823E9F1F801D2
:103CC000448155814150510957FD36C0B601C801A4
:103CD0000E94F91CEC0197FD2FC0F80180819181B1
:103CE000F601248135812C0F3D1F820F931FF801AF
:103CF00044815581421B530BBC018A0D9B1D0E94C0
:103D0000EF27F801848195818A0D9B1D958384831B
:103D100020813181F901E80FF91F1082F8018081BB
:103D20009181F70160817181448155818C0F9D1FC4
:103D30000E94E627AE01C6CFDF91CF911F910F9170
:103D4000FF90EF90DF90CF90BF90AF909F908F90BB
:103D50007F906F905F904F903F902F900895CF93FA
:103D6000DF93FC01C081D181209751F088818823A5
:103D700039F0082E000C990B0E94D6278993F6CFB4
:103D8000DF91CF910895CF93DF93FC01C081D18162
:103D9000209751F08881882339F0082E000C990B68
:103DA0000E94DE278993F6CFDF91CF910895AF92DD
:103DB000BF92CF92DF92EF92FF920F931F93CF9318
:103DC000DF93DC01CD90DC901197C114D10409F48C
:103DD00042C01496CD91DC9115972097E1F18C01AA
:103DE00056017501BFEFAB1ABB0AF7018081082E9F
:103DF000000C990B0E94CD27892B99F72197CC0DA8
:103E0000DD1D8881082E000C990B0E94CD27892B7F
:103E100091F4AE014F5F5F4F4E195F09D8011596BF
:103E20005C934E931497CE14DF0450F4B701C6018F
:103E30000E94E62705C0CE15DF0558F32197E1CF94
:103E4000D801ED91FC91119714968D919C91159745
:103E5000E80FF91F1082DF91CF911F910F91FF9012
:103E6000EF90DF90CF90BF90AF900895FC018081DC
:103E70009181009711F00C94A62760E070E0CB01CF
:103E800008958EBD0DB407FEFDCF8EB508950E9436
:103E9000D8010E94450F0E94010F0E94270F0E9427
:103EA000450F0E94570F6BE672E085E094E00E9498
:103EB0009E140E94900E0E94930A0E94FF0B0E9483
:103EC0001D0DF7CF65E38CE793E00C941605FB011D
:103ED000E05CFF4F208131812F5F3F4F2F733327ED
:103EE000DB01AE5BBF4F4D915C912417350741F06C
:103EF00040815181DB01A40FB51F8C933183208356
:103F00000895CF92DF92EF92FF92E5E0F4E0138202
:103F1000128288EEC82E83E0D82EE12CF12CC482C8
:103F2000D582E682F78262E373E07183608383E087
:103F300096E0958784878FEB95E09787868785EC59
:103F400090E0918B808B84EC90E0938B828B80EC63
:103F500090E0958B848B81EC90E0978B868B82EC44
:103F600090E0918F808F86EC90E0938F828F44E079
:103F7000448F33E0358F27E0268F95E0978F81E0DF
:103F800080A3E3EEF3E013821282C482D582E6823C
:103F9000F78271836083ABE7B5E0B587A487A7E3B9
:103FA000B5E0B787A687ADECB0E0B18BA08BACECE9
:103FB000B0E0B38BA28BA8ECB0E0B58BA48BA9ECDE
:103FC000B0E0B78BA68BAAECB0E0B18FA08FAEECBF
:103FD000B0E0B38FA28F448F358F268F978F80A349
:103FE000E1ECF3E013821282C482D582E682F7828A
:103FF00071836083A3EFB4E0B587A487AFEAB4E030
:10400000B787A687A5EDB0E0B18BA08BA4EDB0E09B
:10401000B38BA28BA0EDB0E0B58BA48BA1EDB0E08B
:10402000B78BA68BA2EDB0E0B18FA08FA6EDB0E06C
:10403000B38FA28F448F358F268F978F80A3EFE9A0
:10404000F3E013821282C482D582E682F782718302
:1040500060836BE674E07587648767E274E0778756
:10406000668765E371E0718B608B64E371E0738B4D
:10407000628B60E371E0758B648B61E371E0778B39
:10408000668B62E371E0718F608F66E371E0738F1E
:10409000628F448F358F268F978F80A3FF90EF908C
:1040A000DF90CF9008956115710579F0FB010190C3
:1040B0000020E9F73197AF01461B570BDC01ED916A
:1040C000FC910280F381E02D199480E090E0089546
:1040D000CF93DF938230910510F482E090E0E0917D
:1040E0005306F091540620E030E0C0E0D0E0309775
:1040F00011F14081518148175907C0F048175907FD
:1041000061F482819381209719F09B838A832BC06D
:10411000909354068093530626C02115310519F05B
:104120004217530718F49A01BE01DF01EF01028024
:10413000F381E02DDCCF2115310509F1281B390B66
:104140002430310590F412968D919C91139761154E
:10415000710521F0FB019383828304C09093540680
:1041600080935306FD01329644C0FD01E20FF31F18
:1041700081939193225031092D933C933AC0209121
:10418000510630915206232B41F420913202309196
:104190003302309352062093510620913002309121
:1041A00031022115310541F42DB73EB7409134025B
:1041B00050913502241B350BE0915106F0915206C7
:1041C000E217F307A0F42E1B3F0B2817390778F0EE
:1041D000AC014E5F5F4F2417350748F04E0F5F1F4D
:1041E00050935206409351068193919302C0E0E0B0
:1041F000F0E0CF01DF91CF9108950F931F93CF93FC
:10420000DF93009709F48CC0FC013297138212826D
:1042100000915306109154060115110581F4208177
:104220003181820F931F2091510630915206281739
:10423000390779F5F0935206E093510671C0D80121
:1042400040E050E0AE17BF0750F412962D913C911C
:104250001397AD012115310509F1D901F3CF9D0166
:10426000DA013383228360817181860F971F821761
:10427000930769F4EC0128813981260F371F2E5FDF
:104280003F4F318320838A819B8193838283452B97
:1042900029F4F0935406E093530642C01396FC931E
:1042A000EE931297ED01499159919E01240F351F0C
:1042B000E217F30771F480819181840F951F0296B4
:1042C00011969C938E938281938113969C938E93E7
:1042D0001297E0E0F0E0D80112968D919C9113972F
:1042E000009719F0F8018C01F6CF8D919C919801FF
:1042F0002E5F3F4F820F931F20915106309152063F
:104300002817390769F4309729F41092540610924F
:10431000530602C013821282109352060093510674
:10432000DF91CF911F910F910895A0E0B0E0EBE9EC
:10433000F1E20C947327EC01009721F4CB010E9469
:104340006820B8C0FC01E60FF71F9C01225031091C
:10435000E217F30708F4ACC0D9010D911C91119735
:1043600006171707B0F00530110508F49FC0C80103
:1043700004978617970708F499C002501109061B85
:10438000170B019311936D937C93CF010E94FD2035
:104390008DC05B01A01AB10A4C01800E911EA09144
:1043A0005306B091540640E050E0E12CF12C1097F8
:1043B00009F44AC0A815B905D1F56D907C90119704
:1043C000630182E0C80ED11CCA14DB0480F1A30192
:1043D0004A195B096A0182E0C80ED11C1296BC9092
:1043E00012971396AC91B5E0CB16D10440F0B2828F
:1043F000A38351834083D9016D937C930AC00E5FE0
:104400001F4FC301800F911FF90191838083EB2D12
:10441000FA2FE114F10431F0D7011396FC93EE93D7
:10442000129744C0F0935406E09353063FC08D9119
:104430009C9111974817590708F4AC017D01129619
:104440000D90BC91A02DB3CF809151069091520652
:1044500088159905E1F446175707C8F48091300292
:1044600090913102009741F48DB79EB7409134028C
:1044700050913502841B950BE817F907C8F4F093A7
:104480005206E0935106F901718360830FC0CB019E
:104490000E9468207C01009759F0A801BE010E948B
:1044A000E627CE010E94FD20C70104C0CE0102C054
:1044B00080E090E0CDB7DEB7EEE00C948F271F923E
:1044C0000F920FB60F9211242F933F938F939F93C8
:1044D000AF93BF938091490690914A06A0914B06F5
:1044E000B0914C063091480623E0230F2D3720F47D
:1044F0000196A11DB11D05C026E8230F0296A11D3E
:10450000B11D209348068093490690934A06A093D4
:104510004B06B0934C0680914D0690914E06A091AB
:104520004F06B09150060196A11DB11D80934D0616
:1045300090934E06A0934F06B0935006BF91AF9153
:104540009F918F913F912F910F900FBE0F901F90D1
:1045500018952FB7F8946091490670914A0680919A
:104560004B0690914C062FBF08953FB7F894809169
:104570004D0690914E06A0914F06B091500626B57B
:10458000A89B05C02F3F19F00196A11DB11D3FBF8B
:10459000BA2FA92F982F8827820F911DA11DB11D19
:1045A000BC01CD0142E0660F771F881F991F4A9515
:1045B000D1F70895CF92DF92EF92FF92CF93DF93DE
:1045C0006B017C010E94B522EB01C114D104E1040E
:1045D000F10479F00E94B5226C1B7D0B683E73409C
:1045E000A0F381E0C81AD108E108F108C851DC4FF6
:1045F000ECCFDF91CF91FF90EF90DF90CF900895B7
:10460000789484B5826084BD84B5816084BD85B5AD
:10461000826085BD85B5816085BDEEE6F0E0808174
:1046200081608083E1E8F0E0108280818260808395
:10463000808181608083E0E8F0E080818160808318
:10464000E1EBF0E0808184608083E0EBF0E080814A
:1046500081608083E1E9F0E08081826080838081F5
:1046600081608083E0E9F0E0808181608083E1EA1D
:10467000F0E0808182608083808181608083E0EAD5
:10468000F0E0808181608083E1E2F1E080818260FE
:104690008083808181608083E0E2F1E080818160BD
:1046A0008083EAE7F0E0808184608083808182609B
:1046B0008083808181608083808180688083109284
:1046C000C1000895863308F0865390917B00282F0F
:1046D0002870977F922B90937B00877020913602F1
:1046E00090E4299F90011124822B80937C0080917B
:1046F0007A00806480937A0080917A0086FDFCCFF6
:10470000809178002091790090E0922B08951F937A
:10471000CF93DF93182FEB0161E00E94962420973E
:1047200011F460E004C0CF3FD10529F461E0812F8E
:104730000E94D224A5C0E12FF0E0E05CFD4FE4919F
:104740004E2F50E0FA013197E131F10508F093C0A6
:104750008827EC57FF4F8F4F0C94672784B58068EC
:1047600084BDC7BD8DC084B5806284BDC8BD88C00E
:1047700080918000806880938000D0938900C093EE
:1047800088007EC080918000806280938000D093FA
:104790008B00C0938A0074C08091B00080688093C1
:1047A000B000C093B3006CC08091B0008062809371
:1047B000B000C093B40064C0809190008068809382
:1047C0009000D0939900C09398005AC080919000B7
:1047D000806280939000D0939B00C0939A0050C059
:1047E00080919000886080939000D0939D00C0934A
:1047F0009C0046C08091A00080688093A0008091BA
:10480000A0008F7B8093A000D093A900C093A80044
:1048100037C08091A00080628093A000D093AB004D
:10482000C093AA002DC08091A00088608093A00052
:10483000D093AD00C093AC0023C08091200180686C
:1048400080932001D0932901C093280119C0809141
:104850002001806280932001D0932B01C0932A0114
:104860000FC080912001886080932001D0932D019A
:10487000C0932C0105C0C038D1050CF057CF51CFE3
:10488000DF91CF911F91089590E0FC013197E131C4
:10489000F10508F04AC08827EB56FF4F8F4F0C9464
:1048A0006727809180008F7703C0809180008F7D83
:1048B00080938000089584B58F7702C084B58F7D82
:1048C00084BD08958091B0008F7703C08091B000BF
:1048D0008F7D8093B0000895809190008F7707C0FE
:1048E000809190008F7D03C080919000877F80939E
:1048F000900008958091A0008F7707C08091A0005C
:104900008F7D03C08091A000877F8093A0000895D1
:10491000809120018F7707C0809120018F7D03C097
:1049200080912001877F809320010895CF93DF93AA
:1049300090E0FC01EA57FD4F2491FC01E453FD4F48
:104940008491882361F190E0880F991FFC01E45D58
:10495000FC4FC591D491FC01EE5EFC4FA591B49142
:10496000611109C09FB7F8948881209582238883BC
:10497000EC912E230BC0623061F49FB7F89438811C
:10498000822F809583238883EC912E2B2C939FBFBD
:1049900006C08FB7F894E8812E2B28838FBFDF9154
:1049A000CF9108951F93CF93DF93282F30E0F90123
:1049B000E05CFD4F8491F901EA57FD4FD491F90174
:1049C000E453FD4FC491CC23C9F0162F81110E94EE
:1049D0004424EC2FF0E0EE0FFF1FEE5EFC4FA5919C
:1049E000B4918FB7F894111105C09C91ED2FE0950B
:1049F000E92302C0EC91ED2BEC938FBFDF91CF91B7
:104A00001F9108955058BB27AA270E941A250C947D
:104A100094260E94862638F00E948D2620F039F4D4
:104A20009F3F19F426F40C9483260EF4E095E7FBDF
:104A30000C947D26E92F0E94A52658F3BA17620729
:104A400073078407950720F079F4A6F50C94C72620
:104A50000EF4E0950B2EBA2FA02D0B01B901900199
:104A60000C01CA01A0011124FF27591B99F0593FDD
:104A700050F4503E68F11A16F040A22F232F342F25
:104A80004427585FF3CF469537952795A795F04073
:104A90005395C9F77EF41F16BA0B620B730B840B88
:104AA000BAF09150A1F0FF0FBB1F661F771F881F40
:104AB000C2F70EC0BA0F621F731F841F48F4879598
:104AC00077956795B795F7959E3F08F0B0CF93958A
:104AD000880F08F09927EE0F9795879508950E9403
:104AE000592608F481E008950E9488250C949426A4
:104AF0000E948D2658F00E94862640F029F45F3FE0
:104B000029F00C947D2651110C94C8260C94832610
:104B10000E94A52668F39923B1F3552391F3951BC1
:104B2000550BBB27AA2762177307840738F09F5FCE
:104B30005F4F220F331F441FAA1FA9F335D00E2E3B
:104B40003AF0E0E832D091505040E695001CCAF7A8
:104B50002BD0FE2F29D0660F771F881FBB1F26176B
:104B600037074807AB07B0E809F0BB0B802DBF0142
:104B7000FF2793585F4F3AF09E3F510578F00C9411
:104B80007D260C94C8265F3FE4F3983ED4F38695C7
:104B900077956795B795F7959F5FC9F7880F911D32
:104BA0009695879597F90895E1E0660F771F881F1E
:104BB000BB1F621773078407BA0720F0621B730BD1
:104BC000840BBA0BEE1F88F7E09508950E94ED253F
:104BD0006894B1110C94C82608950E94AD2688F0FF
:104BE0009F5798F0B92F9927B751B0F0E1F0660FB1
:104BF000771F881F991F1AF0BA95C9F714C0B130F2
:104C000091F00E94C726B1E008950C94C726672F43
:104C1000782F8827B85F39F0B93FCCF38695779520
:104C20006795B395D9F73EF4909580957095619509
:104C30007F4F8F4F9F4F0895E89409C097FB3EF434
:104C400090958095709561957F4F8F4F9F4F9923D9
:104C5000A9F0F92F96E9BB279395F6958795779557
:104C60006795B795F111F8CFFAF4BB0F11F460FF17
:104C70001BC06F5F7F4F8F4F9F4F16C0882311F06F
:104C800096E911C0772321F09EE8872F762F05C083
:104C9000662371F096E8862F70E060E02AF09A951E
:104CA000660F771F881FDAF7880F9695879597F913
:104CB0000895990F0008550FAA0BE0E8FEEF1616AD
:104CC0001706E807F907C0F012161306E407F50700
:104CD00098F0621B730B840B950B39F40A2661F074
:104CE000232B242B252B21F408950A2609F4A14017
:104CF000A6958FEF811D811D089597F99F6780E824
:104D000070E060E008959FEF80EC089500240A941D
:104D10001616170618060906089500240A94121696
:104D20001306140605060895092E0394000C11F4C9
:104D3000882352F0BB0F40F4BF2B11F460FF04C076
:104D40006F5F7F4F8F4F9F4F089557FD9058440FCF
:104D5000551F59F05F3F71F04795880F97FB991FDA
:104D600061F09F3F79F08795089512161306140697
:104D7000551FF2CF4695F1DF08C016161706180624
:104D8000991FF1CF86957105610508940895E894FF
:104D9000BB2766277727CB0197F908950E945926EC
:104DA00008F48FEF08950E94E6260C9494260E9442
:104DB000862638F00E948D2620F0952311F00C9461
:104DC0007D260C94832611240C94C8260E94A526C7
:104DD00070F3959FC1F3950F50E0551F629FF0014E
:104DE000729FBB27F00DB11D639FAA27F00DB11D67
:104DF000AA1F649F6627B00DA11D661F829F2227F0
:104E0000B00DA11D621F739FB00DA11D621F839F76
:104E1000A00D611D221F749F3327A00D611D231F4C
:104E2000849F600D211D822F762F6A2F11249F579A
:104E300050409AF0F1F088234AF0EE0FFF1FBB1F9D
:104E4000661F771F881F91505040A9F79E3F51055C
:104E500080F00C947D260C94C8265F3FE4F3983EC6
:104E6000D4F3869577956795B795F795E7959F5F06
:104E7000C1F7FE2B880F911D9695879597F9089598
:104E80000E945926880B990B0895A1E21A2EAA1B9D
:104E9000BB1BFD010DC0AA1FBB1FEE1FFF1FA217EA
:104EA000B307E407F50720F0A21BB30BE40BF50BE7
:104EB000661F771F881F991F1A9469F76095709570
:104EC000809590959B01AC01BD01CF010895EE0F37
:104ED000FF1F881F8BBF0790F691E02D19942F922A
:104EE0003F924F925F926F927F928F929F92AF927A
:104EF000BF92CF92DF92EF92FF920F931F93CF93C7
:104F0000DF93CDB7DEB7CA1BDB0B0FB6F894DEBF5D
:104F10000FBECDBF19942A88398848885F846E8473
:104F20007D848C849B84AA84B984C884DF80EE80CD
:104F3000FD800C811B81AA81B981CE0FD11D0FB6D6
:104F4000F894DEBF0FBECDBFED0108951F93FC01A5
:104F500099278827BC01E89411911032E9F31930A0
:104F600010F01E30C8F31B3251F01D3249F4689422
:104F700006C00E948E28610F711D811D911D119127
:104F800010531A30B0F33EF490958095709561956A
:104F90007F4F8F4F9F4F1F91089591110C94F528CB
:104FA000803219F089508550C8F7089591110895FD
:104FB00081548A5108F4805E855A089591110895AC
:104FC00081568A5108F4805285580895FB01DC010E
:104FD00002C001900D9241505040D8F708956817D3
:104FE000790768F4FB01DC01E40FF51FA40FB51F7E
:104FF00002C002900E9241505040D8F708950C9490
:10500000E627FC018191861721F08823D9F799279B
:1050100008953197CF010895FB01DC018D91019036
:1050200080190110D9F3990B0895FB01DC0101905F
:105030000D920020E1F70895FB01DC014150504042
:1050400030F08D910190801919F40020B9F7881B78
:10505000990B0895FB01DC014150504048F001904C
:105060000D920020C9F701C01D9241505040E0F759
:105070000895FC0181E090E00190061609F4CF014B
:105080000020D1F701970895FB0151915523A9F014
:10509000BF01DC014D9145174111E1F759F4CD01F4
:1050A0000190002049F04D9140154111C9F3FB01D9
:1050B0004111EFCF81E090E001970895453251050D
:1050C00020F4423010F00C946928FB011082CB01CF
:1050D0000895BB274A3031F4992322F4BDE290951C
:1050E00081959F4F0C94DC282532310520F4223025
:1050F00010F00C947F28FA011082CA010895BB2792
:105100002A3051F4992342F4BDE290958095709530
:1051100061957F4F8F4F9F4F0C94AF28592F482F89
:10512000372F262F660F771F881F991F660F771F4F
:10513000881F991F620F731F841F951F660F771FAB
:10514000881F991F08952532310520F4223010F070
:105150000C94AE28FA011082CA010895BB27FA0107
:10516000A62F6217710581059105330B30FB66F0A0
:10517000AA27660F771F881F991FAA1FA21710F072
:10518000A21B63953850A9F7A05DAA3308F0A95D6A
:10519000A19336F7B111B1931082CA010C94F8288B
:1051A0004532510520F4423010F00C94DB28FB010D
:1051B0001082CB010895BB27FB015527AA27880F32
:1051C000991FAA1FA41710F0A41B83955051B9F77B
:1051D000A05DAA3308F0A95DA193009779F7B111FA
:1051E000B1931192CB010C94F82899278827089540
:1051F000DC01FC01672F71917723E1F7329704C03E
:105200007C916D9370836291AE17BF07C8F30895C8
:04521000F894FFCF40
:10521400000020410000DC420000A0420000D24215
:105224000000000000007042000082420000C842FA
:105234000000000000FF7F470000404133935B44BF
:1052440000005506800001696E69745F73657269B8
:10525400616C3A207061737300696E69745F636195
:105264006E3A207265747279696E6700696E69744A
:105274005F63616E3A207061737300696E697420B4
:10528400636F6D706C657465004D61737465722035
:1052940043796C696E646572204F70656E004D6170
:1052A400737465722043796C696E64657220436C13
:1052B4006F736500436F6E74726F6C20656E61620C
:1052C4006C656400436F6E74726F6C206469736103
:1052D400626C6564004F70657261746F72206F76E2
:1052E4006572726964650054696D656F7574202D0B
:1052F40020636F6E74726F6C6C657220636F6D6D7A
:10530400616E64004661756C74207265706F7274AE
:105314002072656365697665642066726F6D3A20F4
:10532400002020445443733A2000696E697420437A
:105334006F6E74726F6C2043414E202D200000006C
:105344000000F50FD3139E0FCA0FAE0FEA0F6E6164
:0C5354006E00696E66006F7666002E0029
:00000001FF
